:0300000002065E97
:0C065E00787FE4F6D8FD75813A0206A50D
:1009F5005354433846324B3332533420536C61766B
:100A0500657220546573742050726772616D6D65EF
:040A1500210D0A00A5
:100ABD00D294120A191200267592FFE4F591D29480
:010ACD002206
:10099B00120ABDC2B47BFF7A0979F5120A657BFF97
:1009AB007A0979F5120A917F0A120046EF70061246
:0D09BB00087212051B7F0A1204510080EA29
:100A1900759850E4F589758BB8758DFFD28E438E24
:0B0A290040538EFEF51AF518C20022A3
:10002600759A5075D78075D6FB438E14E4F51BF58B
:0D00360019C20175AF01D2AFD2ACD2AF221A
:100A65001207596010F599D2002000FD740129F98B
:060A7500E43AFA80EB22D6
:100A7B001207596010F599D2002000FD740129F975
:060A8B00E43AFA80EB22C0
:0A0933008B288A29892A8C2B8D2C31
:10093D00E4F52DF52EAB28AA29A92A852E82852D21
:10094D0083120772FF120B15052EE52E7002052D71
:09095D00C3952CE52D952B40DC1F
:01096600226E
:0A0967008B288A29892A8C2B8D2CFD
:10097100E4F52DF52EAB28AA29A92A852E82852DED
:1009810083120772FF120B0D052EE52E7002052D45
:09099100C3952CE52D952B40DCEB
:01099A00223A
:100A91001207596010F59BD2012001FD740129F95B
:060AA100E43AFA80EB22AA
:080B0D002001FDD2018F9B22A3
:080B15008F993099FDC299226D
:030043000209C8E7
:1009C800C0E0C0F0C083C082C0D075D008E59A30BE
:1009D800E105539AFDC201E59A30E006539AFE12EA
:0D09E8000153D0D0D082D083D0F0D0E032C7
:030023000208FCD4
:1008FC00C0E0C083C082C0D0309904C299C200301D
:10090C00981CC29874002518F582E43400F583E530
:10091C0099F00518E518C394804003751800D0D0E1
:07092C00D082D083D0E0323D
:10035D00436F6D6D756E6963617465204545524FD0
:10036D00522D300D0A00436F6D6D756E69636174AA
:10037D0065204545524F522D310D0A004F70656E67
:10038D002B2B2B20446179203E20300D0A004F701D
:10039D00656E2B2B2B20446179203D3D20300D0ABD
:1003AD00004F70656E2B2B2B20446179203C203043
:1003BD000D0A004552524F522D320D0A00436F6DFA
:1003CD006D756E6963617465204545524F522D32CE
:1003DD000D0A004D61632053617665204F4B202D32
:1003ED000D0A004D6163204552524F52202D203091
:1003FD000D0A004D617374657220536C61766572E0
:10040D00204D61632069732053616D650D0A004DA8
:10041D00617374657220536C61766572204D6163F2
:10042D0020697320446966666572656E63650D0AA1
:10043D0000C56A290605F4C56A29070814CBAFAFB4
:04044D00AF06006C8A
:030B1D00011200C2
:10015300E5137049900081E0900080F0900082E008
:10016300900081F0A3E59BF0900080E0FFB4C50D03
:10017300A3E0B46A08A3E0B42903751301EF64AFE5
:10018300600302025C900081E064AF600302025CE2
:10019300A3E064AF600302025C751301227483253C
:1001A30012F582E43400F583E59BF0900083E0F5DB
:1001B300160512E51624FDFFE512C39F5003020244
:1001C3005CE4F513F5127B017A007980E51614FDE2
:1001D3001200038F17747F2516F582E43400F5832C
:1001E300E065177071900080E064AF7042A3E06433
:1001F300AF703C751503753401753500753680F5A0
:100203003775381B7B017A01793612082090013645
:1002130074C5F0A3746AF0A37429F07B017A0179A1
:1002230036A3E014FD120003900150EFF0B2B0903A
:100233000080E0B4C51CA3E0B46A17A3E0B429129C
:10024300900084E0FFB40503751401EFB40803754F
:0A0253001403539AEF2275140222DF
:0405BF008F248D25D3
:1005C300439A10E4F591120B04E4F526E526C3954E
:1005D3002450187FAA120B0D7FAA120B0D7FAA12AB
:1005E3000B0D7FC0120B0D052680E17BFF7A04798A
:1005F3003E7D077C001209677591EF120B04E4F549
:1006030027E527C395255007120AEA052780F2E557
:1006130014B40119E4F514900085E0FEA3E07C0016
:100623002400F511EC3EF5107E007F02227B017A57
:1006330001791B752D00752E1B7F007E041208C0E7
:100643007B017A01791B7D1B7C001209337BFF7AC6
:0B06530003795D120A7B7EFF7FFF220F
:10087200752303752303AD237F021205BFEF6402C4
:100882004E7004FE7F02220523E523C3941E40E638
:100892007B017A01791B752D00752E1B7F007E046A
:1008A2001208C07B017A01791B7D1B7C001209337F
:0D08B2007BFF7A037973120A7B7EFF7FFFC4
:0108BF002216
:10051B00E4F523EF64024E706ED3E5119400E51001
:10052B0064809480402A7B017A01791B752D0075BC
:10053B002E1B7F007E041208C07B017A01791B7D84
:10054B001B7C00120933C2947BFF7A037989805D8F
:10055B00E511451070087BFF7A03799B804FC3E54B
:10056B0010648094805018900085E0FF120B15905A
:10057B000086E0FF120B157BFF7A0379AE802E7B92
:10058B00FF7A0379C080267B017A01791B752D00D8
:10059B00752E1B7F007E041208C07B017A01791B2C
:1005AB007D1B7C001209337BFF7A0379CA120A7B0D
:0305BB000000003D
:0105BE00221A
:10045100E5156403600302051A8F23C2AF7B017A9D
:10046100017936752B00752C1B7F007E041207C1A4
:100471007B017A01791B752D00752E1B7F007E048F
:100481001208C0D2AF90011BE064C57070A3E06494
:100491006A706AA3E064297064900133E0643C707F
:1004A1005CA3E0643C7056539AEFF591F5157BFF20
:1004B1007A0379E0120A7B7BFF7A0379E0120A65FD
:1004C100E4F524E4F5257FAA120B0D7FAA120B0D8A
:1004D1007FAA120B0D7FC0120B0D0525E525C394D4
:1004E1000240E37BFF7A04794B7D067C00120967A9
:1004F100120ADD0524E524C3940540C7227BFF7A57
:100501000379F0120A7B7BFF7A0379F0120A65AF57
:09051100231523EF600302045CD2
:01051A0022BE
:020046008F2306
:10004800E4F52674002526F582E43401F58374AAC4
:10005800F00526E526B41BEBE4F524439A10E4F5F5
:1000680091120B04E4F5267FAA120B0D7FAA120B3E
:100078000D7FAA120B0D7FC0120B0D0526E526C3B6
:10008800940240E37BFF7A0479447D087C001209DE
:10009800677591EF120B04E4F525E5242401FFE4CC
:1000A80033FEC3E5259FEE6480F8748098500712EC
:1000B8000AEA052580E4E514B4032A753401753588
:1000C8000075368075370075381B7B017A01790019
:1000D8001208207B017A0079807D1B7C001209338D
:1000E800E4F514800DAF240524EFC39523500302D3
:1000F80000637B017A01791B752D00752E1B7F002B
:100108007E041208C0752A01752B01752C00752D07
:1001180000752E1B7B017A01791B1206EAEF7B0121
:100128007A01791B7D1B7010FC1209337BFF7A045E
:100138007900120A657F00227C001209337BFF7A5E
:0A01480004791C120A65D2947F01AD
:01015200228A
:080B04007F0B7EBEDEFEDFFC6C
:010B0C0022C6
:0C0ADD007F2B7E067DCBDDFEDEFCDFFA09
:010AE90022EA
:0C0AEA007F057E347DC3DDFEDEFCDFFAFC
:010AF60022DD
:0E0ACE0000007FA77EB57DA0DDFEDEFCDFFA16
:010ADC0022F7
:10025D00005EBCE2613FDD83C29C7E20A3FD1F4199
:10026D009DC3217FFCA2401E5F01E3BD3E6082DC89
:10027D00237D9FC1421CFEA0E1BF5D0380DE3C6279
:10028D00BEE0025CDF81633D7C22C09E1D43A1FF69
:10029D004618FAA427799BC584DA3866E5BB590759
:1002AD00DB856739BAE406581947A5FB7826C49A49
:1002BD00653BD987045AB8E6A7F91B45C6987A2439
:1002CD00F8A6441A99C7257B3A6486D85B05E7B929
:1002DD008CD2306EEDB3510F4E10F2AC2F7193CD19
:1002ED00114FADF3702ECC92D38D6F31B2EC0E5009
:1002FD00AFF1134DCE90722C6D33D18F0C52B0EEF9
:10030D00326C8ED0530DEFB1F0AE4C1291CF2D73E8
:10031D00CA947628ABF517490856B4EA6937D58BD8
:10032D005709EBB536688AD495CB2977F4AA4816C8
:10033D00E9B7550B88D6346A2B7597C94A14F6A8B8
:10034D00742AC896154BA9F7B6E80A54D7896B35A8
:10000300E4FFD3ED6480948040131207596F90028C
:0D0013005D93FF740129F9E43AFA1D80E5C0
:0100200022BD
:0D0AF700E4F5C7F5C5F5C675C380F5C4224A
:100A340075C78375C5018FC4EEFF8FC375C65A751C
:080A4400C6A500AFC2120AF7BB
:010A4C002287
:100A4D0075C78375C5028FC4EEFF8FC38DC275C682
:080A5D005A75C6A500020AF754
:100AA70075C78375C5038FC4EEFF8FC375C65A75A7
:060AB700C6A500020AF7CB
:0A07C1008E268F278B288A29892AAB
:1007CB00E4FCECFF7E00C3952CE52B6480F8748071
:1007DB0098500EE5272FFFEE3526FE120AA70C8048
:1007EB00E1E4FCECFF7E00C3952CE52B6480F874F0
:1007FB0080985020E5272FFFEE3526FEAB28052AE3
:10080B00E52AAA297002052914F9120759FD120AC3
:04081B004D0C80CF31
:01081F0022B6
:0A08C0008E288F298B2A8A2B892CA1
:1008CA00E4FDEDC3952EE52D6480F87480985021DF
:1008DA000529E529AE287002052814FF120A34AB4F
:1008EA002AAA2BA92C8D82758300EF12079F0D80EF
:0108FA00D12C
:0108FB0022DA
:10066A0002099BE493A3F8E493A34003F68001F202
:10067A0008DFF48029E493A3F85407240CC8C33391
:10068A00C4540F4420C8834004F456800146F6DF60
:10069A00E4800B0102040810204080900B1DE47EC8
:1006AA00019360BCA3FF543F30E509541FFEE49355
:1006BA00A360010ECF54C025E060A840B8E493A31C
:1006CA00FAE493A3F8E493A3C8C582C8CAC583CA47
:1006DA00F0A3C8C582C8CAC583CADFE9DEE780BEFF
:010B200000D4
:10075900BB010689828A83E0225002E722BBFE029E
:09076900E32289828A83E49322D1
:10077200BB010CE58229F582E5833AF583E022503C
:1007820006E92582F8E622BBFE06E92582F8E22286
:0D079200E58229F582E5833AF583E49322A0
:10079F00F8BB010DE58229F582E5833AF583E8F090
:1007AF00225006E92582C8F622BBFE05E92582C83C
:0207BF00F22224
:1006EA008B278A288929AB2AAA2BA92C120759FEFB
:1006FA00AB27AA28A929120759FF6E702BEF600DA4
:10070A00E52E152E7002152D14452D70037F00223B
:10071A0074012529F529E43528F5287401252CF5D5
:10072A002CE4352BF52B80BEAB27AA28A929120762
:10073A0059FDD3EE6480F8ED64809840037F01226E
:0F074A00AB2AAA2BA92C120759FFC3ED9FFF2240
:100820008B318A328933E4F539F53AE5381538AE3B
:1008300037700215374E6033AB34AA35A93612072C
:1008400059FFAB31AA32A933053AE53AAC39700207
:10085000053914F5828C83EF12079FEF60CD740188
:100860002536F536E43535F53580C0AB31AA32A9E9
:02087000332231
:00000001FF
