:030000000216EAFB
:0C16EA00787FE4F6D8FD75812C021731E2
:101938005532617274205465737431210D0A005553
:101948006172742054657374204C4F524156312E85
:101958003020210D0A00436F6D6D616E64204F5079
:10196800494420307830313A202100436F6D6D6151
:0B1978006E6420307830353A202100EA
:10165A00E490021BF012002612000E75AF01D2AF01
:10166A00D2ACD2AF121AA5C2A97BFF7A1979381265
:10167A001A627BFF7A197947121A3DE51BB40106F3
:10168A00120046E4F51BE515B401F0E4F5159001E6
:10169A009BE024FC6024146026240B603B24F97030
:1016AA00DA7BFF7A19795E121A3D90019CE0FF12EB
:1016BA00000390019DE0FF12000312198380BC7B96
:1016CA00FF7A197973121A3D90019CE0FF12000308
:1016DA0090019DE0FF12000390021B7403F0809BAF
:030043000219B9E6
:1019B900C0E0C0F0C083C082C0D075D008E59A30BD
:1019C900E105539AFDC201E59A30E009539AFE12E6
:1019D9001776531C0FD0D0D082D083D0F0D0E0320C
:030023000219E9D6
:1019E900C0E0C0F0C083C082C0D075D0083099046F
:1019F900C299C200309808C2981217F7531E0FD027
:0A1A0900D0D082D083D0F0D0E032BC
:10002600759850E4F589758BB8758DFFD28E438E21
:0B00360040538EFEF51EF51DC2002297
:10000E00759A5075D7E075D6FE438E14E4F51CF53F
:04001E001FC20122DA
:080003002000FDD2008F9922BC
:081AE0002001FDD2018F9B22C1
:101A3D008B218A228923AB21AA22A9231218E060C7
:101A4D00130523E5237002052214F91218E0FF1285
:051A5D00000380E222FD
:101A62008B218A228923AB21AA22A9231218E060A2
:101A7200130523E5237002052214F91218E0FF1260
:051A82001AE080E222E1
:10155A00005EBCE2613FDD83C29C7E20A3FD1F4189
:10156A009DC3217FFCA2401E5F01E3BD3E6082DC79
:10157A00237D9FC1421CFEA0E1BF5D0380DE3C6269
:10158A00BEE0025CDF81633D7C22C09E1D43A1FF59
:10159A004618FAA427799BC584DA3866E5BB590749
:1015AA00DB856739BAE406581947A5FB7826C49A39
:1015BA00653BD987045AB8E6A7F91B45C6987A2429
:1015CA00F8A6441A99C7257B3A6486D85B05E7B919
:1015DA008CD2306EEDB3510F4E10F2AC2F7193CD09
:1015EA00114FADF3702ECC92D38D6F31B2EC0E50F9
:1015FA00AFF1134DCE90722C6D33D18F0C52B0EEE9
:10160A00326C8ED0530DEFB1F0AE4C1291CF2D73D8
:10161A00CA947628ABF517490856B4EA6937D58BC8
:10162A005709EBB536688AD495CB2977F4AA4816B8
:10163A00E9B7550B88D6346A2B7597C94A14F6A8A8
:10164A00742AC896154BA9F7B6E80A54D7896B3598
:031AD300011200FD
:1017F700E510702C900198E0900197F0900199E026
:10180700900198F0A3E599F0900197E064C57058AE
:10181700A3E0646A7052A3E06429704C751001223A
:10182700749A2518F582E43401F583E599F090015F
:101837009AE0F5170518E51724FD6518702AF510C5
:10184700F5187B017A017997E51714FD121A878F2E
:101857001374962517F582E43401F583E0B5130870
:09186700751501E490021BF0224A
:10177600E5147028900118E0900117F0900119E027
:10178600900118F0A3E59BF0900117E064AF70603C
:10179600A3E0705CA3E0705875140122741A251238
:1017A600F582E43401F583E59BF00512E512B408F1
:1017B60006900121E0F511E511240AFFE433FEE568
:1017C600126F7001EE7029F514F5127B017A01791A
:1017D60017E511240AFD121A1C8F1674222511F51D
:1017E60082E43401F583E0B51604751B0122D2B0FC
:0117F60022D0
:10198300E4F521F521E4FF1200030521E521C394C9
:101993001040F27FC51200037F6A1200037F2912F1
:1019A30000037F071200037F041200037F0112006C
:0619B300037F2402000383
:10004600E4F521F522F523F524900125E0640E6000
:100056000302026FA3E064FA600302026FF515C2A1
:100066009CF521E4FF1200030521E521C39410400D
:10007600F2900122E0FF120003900123E0FF12003C
:1000860003900124E0FF120003900125E0FF120017
:1000960003900126E0FF120003900127E0FF120003
:1000A60003900128E0FF120003900129E0FF1200EF
:1000B6000390012AE0FF12000390012BE0FF1200DB
:1000C6000390012CE0FF12000390012DE0FF1200C7
:1000D6000390012EE0FF12000390012FE0FF1200B3
:1000E60003D29C90021B7402F0D2A9E5156401604C
:1000F6000302025FF515752501752600752797AB76
:10010600250527E527AA267002052614F974AF12DD
:100116001926AB250527E527AA267002052614F918
:10012600E4121926AB250527E527AA26700205261F
:1001360014F9E4121926AB250527E527AA2670022D
:10014600052614F9E4121926AB250527E527AA2664
:100156007002052614F9E4121926AB250527E527B2
:10016600AA267002052614F9E4121926AB250527DE
:10017600E527AA267002052614F9E4121926AB25EE
:100186000527E527AA267002052614F97402121916
:1001960026AB250527E527AA267002052614F9743D
:1001A60014121926AB250527E527AA26700205266F
:1001B60014F9741112192690019AE0FFAB25052750
:1001C600E527AA267002052614F9EF121926E4F58A
:1001D6002190019AE0FFE521C39F502374972521C2
:1001E600F582E43401F583E0FEAB250527E527AA71
:1001F600267002052614F9EE121926052180D2EF83
:10020600121A13AB250527E527AA26700205261420
:10021600F9EF121926AB250527E527AA2670020550
:100226002614F9743C121926E4F52190019AE0246B
:100236000DFFE433FEC3E5219FEE6480F8748098D9
:10024600400302155974972521F582E43400F5839D
:10025600E0FF121AE0052180D2121AC40523E52315
:10026600C3944C50030200F122E4F5247525017570
:100276002600752700F519E522C3941750117480DE
:100286002522F582E43400F583E4F0052280E8E4D3
:10029600F522E5112407FFE433FEC3E5229FEE6451
:1002A60080F8748098400302140274172522F582A0
:1002B600E43401F583E0643A60030213FD74182503
:1002C60022F582E43401F583E064C560030213FD80
:1002D60074192522F582E43401F583E0646A60032B
:1002E6000213FD741A2522F582E43401F583E064D5
:1002F6002960030213FD741C2522F582E43401F5FE
:1003060083E0FFAE19051974802EF582E43400F5FA
:1003160083EFF0741C2522F582E43401F583E0B402
:10032600150040030213FD900334F82828730203D6
:10033600730208CF0213FD0213FD0213FD02097CAE
:10034600020A27020AD2020B7D020C27020CCC02FB
:100356000D85020E3E020EF7020FB302106C02115B
:10036600250211DE0213FD021297021350741D2599
:1003760022F582E43401F583E06408600302043761
:10038600F523F515E4F521E4FF1200030521E52127
:10039600C3941040F27FC51200037F6A1200037FE8
:1003A600291200037F08120003E4FF1200037F08EE
:1003B6001200037F021200037F4812000305231276
:1003C6001AB5E51564017059752801752901752A54
:1003D60097AB250527E527AA267002052614F9748A
:1003E6003A1219260524E4F52190019AE0FFE52149
:1003F600C39F502AAB28052AE52AAA297002052997
:1004060014F91218E0FFAB250527E527AA26700286
:10041600052614F9EF1219260524052180CB020BB7
:1004260065121AB5E523C39403500302038A021327
:10043600FD741D2522F582E43401F583E06409602C
:10044600030204FBF523F515E4F521E4FF1200038E
:100456000521E521C3941040F27FC51200037F6A8F
:100466001200037F291200037F08120003E4FF1223
:1004760000037F091200037F021200037F8C120023
:10048600030523121AB5E51564017059752801751F
:100496002901752A97AB250527E527AA26700205A7
:1004A6002614F9743A1219260524E4F52190019AC6
:1004B600E0FFE521C39F502AAB28052AE52AAA2991
:1004C6007002052914F91218E0FFAB250527E52768
:1004D600AA267002052614F9EF121926052405210D
:1004E60080CB020B65121AB5E523C39403500302B1
:1004F600044E0213FD741D2522F582E43401F583B2
:10050600E0640A60030205BFF523F515E4F521E46E
:10051600FF1200030521E521C3941040F27FC512A6
:1005260000037F6A1200037F291200037F0812006E
:1005360003E4FF1200037F0A1200037F0212000386
:100546007FD91200030523121AB5E5156401705907
:10055600752801752901752A97AB250527E527AA70
:10056600267002052614F9743A1219260524E4F5B4
:100576002190019AE0FFE521C39F502AAB28052A66
:10058600E52AAA297002052914F91218E0FFAB25FD
:100596000527E527AA267002052614F9EF12192663
:1005A6000524052180CB020B65121AB5E523C394F9
:1005B6000350030205120213FD741D2522F582E481
:1005C6003401F583E0643C6003020683F523F515E8
:1005D600E4F521E4FF1200030521E521C394104050
:1005E600F27FC51200037F6A1200037F29120003FF
:1005F6007F08120003E4FF1200037F3C1200037F12
:10060600021200037F5E1200030523121AB5E515D8
:1006160064017059752801752901752A97AB25055E
:1006260027E527AA267002052614F9743A12192618
:100636000524E4F52190019AE0FFE521C39F502AA5
:10064600AB28052AE52AAA297002052914F91218E9
:10065600E0FFAB250527E527AA267002052614F933
:10066600EF1219260524052180CB020B65121AB557
:10067600E523C3940350030205D60213FD741D251A
:1006860022F582E43401F583E0643D600302074706
:10069600F523F515E4F521E4FF1200030521E52114
:1006A600C3941040F27FC51200037F6A1200037FD5
:1006B600291200037F08120003E4FF1200037F3DA6
:1006C6001200037F021200037F9A12000305231211
:1006D6001AB5E51564017059752801752901752A41
:1006E60097AB250527E527AA267002052614F97477
:1006F6003A1219260524E4F52190019AE0FFE52136
:10070600C39F502AAB28052AE52AAA297002052983
:1007160014F91218E0FFAB250527E527AA26700273
:10072600052614F9EF1219260524052180CB020BA4
:1007360065121AB5E523C39403500302069A021301
:10074600FD741D2522F582E43401F583E0643E60E4
:100756000302080BF523F515E4F521E4FF12000367
:100766000521E521C3941040F27FC51200037F6A7C
:100776001200037F291200037F08120003E4FF1210
:1007860000037F3E1200037F021200037FCF120098
:10079600030523121AB5E51564017059752801750C
:1007A6002901752A97AB250527E527AA2670020594
:1007B6002614F9743A1219260524E4F52190019AB3
:1007C600E0FFE521C39F502AAB28052AE52AAA297E
:1007D6007002052914F91218E0FFAB250527E52755
:1007E600AA267002052614F9EF12192605240521FA
:1007F60080CB020B65121AB5E523C394035003029E
:10080600075E0213FD741D2522F582E43401F5838B
:10081600E0643F60030213FDF523F515E4F521E4DA
:10082600FF1200030521E521C3941040F27FC51293
:1008360000037F6A1200037F291200037F0812005B
:1008460003E4FF1200037F3F1200037F021200033E
:100856007F0B1200030523121AB5E51564017059C2
:10086600752801752901752A97AB250527E527AA5D
:10087600267002052614F9743A1219260524E4F5A1
:100886002190019AE0FFE521C39F502AAB28052A53
:10089600E52AAA297002052914F91218E0FFAB25EA
:1008A6000527E527AA267002052614F9EF12192650
:1008B6000524052180CB020B65121AB5E523C394E6
:1008C6000350030208220213FDE4F523F515E4F5AF
:1008D60021E4FF1200030521E521C3941040F27FB5
:1008E600C51200037F6A1200037F291200037F07E7
:1008F6001200037F011200037F0E1200037F9A127B
:1009060000030523121AB5E515640170597528010F
:10091600752901752A97AB250527E527AA267002B2
:10092600052614F9743A1219260524E4F5219001D6
:100936009AE0FFE521C39F502AAB28052AE52AAA9B
:10094600297002052914F91218E0FFAB250527E5E1
:1009560027AA267002052614F9EF12192605240582
:100966002180CB020B65121AB5E523C3940350030D
:100976000208D40213FDE4F523F515E4F521E4FF9E
:100986001200030521E521C3941040F27FC5120031
:10099600037F6A1200037F291200037F06120003F9
:1009A6007F051200037FF4120003121AB5121AB55E
:1009B600E51564017059752801752901752A97ABEB
:1009C600250527E527AA267002052614F9743A128A
:1009D60019260524E4F52190019AE0FFE521C39F3D
:1009E600502AAB28052AE52AAA297002052914F9F6
:1009F6001218E0FFAB250527E527AA267002052673
:100A060014F9EF1219260524052180CB020B651275
:100A16001AB50523E523C394035003020981021383
:100A2600FDE4F523F515E4F521E4FF1200030521A5
:100A3600E521C3941040F27FC51200037F6A1200BD
:100A4600037F291200037F061200037F06120003AC
:100A56007F16120003121AB5121AB5E51564017055
:100A660059752801752901752A97AB250527E527AC
:100A7600AA267002052614F9743A1219260524E4EA
:100A8600F52190019AE0FFE521C39F502AAB280586
:100A96002AE52AAA297002052914F91218E0FFABE3
:100AA600250527E527AA267002052614F9EF12194F
:100AB600260524052180CB020B65121AB50523E510
:100AC60023C394035003020A2C0213FDE4F523F515
:100AD60015E4F521E4FF1200030521E521C3941076
:100AE60040F27FC51200037F6A1200037F291200BD
:100AF600037F061200037F071200037F48120003DC
:100B0600121AB5E5156401705C7528017529017521
:100B16002A97AB250527E527AA267002052614F98C
:100B2600743A1219260524E4F52190019AE0FFE5AE
:100B360021C39F502AAB28052AE52AAA2970020557
:100B46002914F91218E0FFAB250527E527AA267018
:100B560002052614F9EF1219260524052180CB1269
:100B66001AB50213FD121AB50523E523C3940350E3
:100B760003020AD70213FDE4F523F515E4F521E493
:100B8600FF1200030521E521C3941040F27FC51230
:100B960000037F6A1200037F291200037F071200F9
:100BA600037F081200037F141200037FCB12000399
:100BB600121AB5E515640170597528017529017574
:100BC6002A97AB250527E527AA267002052614F9DC
:100BD600743A1219260524E4F52190019AE0FFE5FE
:100BE60021C39F40030213FDAB28052AE52AAA2943
:100BF6007002052914F91218E0FFAB250527E52731
:100C0600AA267002052614F9EF12192605240521D5
:100C160080C80523E523C394035003020B82021305
:100C2600FDE4F523F515E4F521E4FF1200030521A3
:100C3600E521C3941040F27FC51200037F6A1200BB
:100C4600037F291200037F061200037F09120003A7
:100C56007F57120003121AB5E515640170597528FD
:100C660001752901752A97AB250527E527AA267060
:100C760002052614F9743A1219260524E4F5219082
:100C8600019AE0FFE521C39F40030213FDAB28054F
:100C96002AE52AAA297002052914F91218E0FFABE1
:100CA600250527E527AA267002052614F9EF12194D
:100CB600260524052180C80523E523C39403500394
:100CC600020C2C0213FDE4F523F515E4F521E4FFEF
:100CD6001200030521E521C3941040F27FC51200DE
:100CE600037F6A1200037F291200037F06120003A6
:100CF6007F0A1200037FB5120003121AB5E51564C8
:100D060001706D90019AE0640860030213FDA3E090
:100D1600640A60030213FD752801752901752A9777
:100D2600AB250527E527AA267002052614F9743A8D
:100D36001219260524E4F52190019AE0FFE521C366
:100D46009F40030213FDAB28052AE52AAA29700253
:100D5600052914F91218E0FFAB250527E527AA2671
:100D66007002052614F9EF1219260524052180C8FC
:100D76000523E523C394035003020CD10213FDE4BB
:100D8600F523F515E4F521E4FF1200030521E5211D
:100D9600C3941040F27FC51200037F6A1200037FDE
:100DA600291200037F061200037F0B1200037FEB5C
:100DB600120003121AB5E5156401706D90019AE0F0
:100DC600640860030213FDA3E0640B60030213FDD5
:100DD600752801752901752A97AB250527E527AAE8
:100DE600267002052614F9743A1219260524E4F52C
:100DF6002190019AE0FFE521C39F40030213FDAB5A
:100E060028052AE52AAA297002052914F91218E0EC
:100E1600FFAB250527E527AA267002052614F9EF5C
:100E26001219260524052180C80523E523C394034A
:100E36005003020D8A0213FDE4F523F515E4F521AE
:100E4600E4FF1200030521E521C3941040F27FC59B
:100E56001200037F6A1200037F291200037F061225
:100E660000037F0C1200037F68120003121AB5E517
:100E7600156401706D90019AE0640860030213FD29
:100E8600A3E0640C60030213FD7528017529017542
:100E96002A97AB250527E527AA267002052614F909
:100EA600743A1219260524E4F52190019AE0FFE52B
:100EB60021C39F40030213FDAB28052AE52AAA2970
:100EC6007002052914F91218E0FFAB250527E5275E
:100ED600AA267002052614F9EF1219260524052103
:100EE60080C80523E523C394035003020E4302136F
:100EF600FDE4F523F515E4F521E4FF1200030521D1
:100F0600E521C3941040F27FC51200037F6A1200E8
:100F1600037F291200037F061200037F0D120003D0
:100F26007F36120003121AB5121AB5E51564017060
:100F36006D90019AE0640860030213FDA3E0640D5E
:100F460060030213FD752801752901752A97AB25E3
:100F56000527E527AA267002052614F9743A121900
:100F6600260524E4F52190019AE0FFE521C39F4080
:100F7600030213FDAB28052AE52AAA2970020529D2
:100F860014F91218E0FFAB250527E527AA267002FB
:100F9600052614F9EF1219260524052180C8052314
:100FA600E523C394035003020EFC0213FDE4F5236C
:100FB600F515E4F521E4FF1200030521E521C394AC
:100FC6001040F27FC51200037F6A1200037F2912C8
:100FD60000037F061200037F0E1200037FD4120067
:100FE60003121AB5E5156401706D90019AE0640864
:100FF60060030213FDA3E0640E60030213FD75286F
:1010060001752901752A97AB250527E527AA2670BC
:1010160002052614F9743A1219260524E4F52190DE
:10102600019AE0FFE521C39F40030213FDAB2805AB
:101036002AE52AAA297002052914F91218E0FFAB3D
:10104600250527E527AA267002052614F9EF1219A9
:10105600260524052180C80523E523C394035003F0
:10106600020FB80213FDE4F523F515E4F521E4FFBC
:101076001200030521E521C3941040F27FC512003A
:10108600037F6A1200037F291200037F0612000302
:101096007F0F1200037F8A120003121AB5E515644A
:1010A60001706D90019AE0640860030213FDA3E0ED
:1010B600640F60030213FD752801752901752A97CF
:1010C600AB250527E527AA267002052614F9743AEA
:1010D6001219260524E4F52190019AE0FFE521C3C3
:1010E6009F40030213FDAB28052AE52AAA297002B0
:1010F600052914F91218E0FFAB250527E527AA26CE
:101106007002052614F9EF1219260524052180C858
:101116000523E523C3940350030210710213FDE473
:10112600F523F515E4F521E4FF1200030521E52179
:10113600C3941040F27FC51200037F6A1200037F3A
:10114600291200037F061200037F101200037F5648
:10115600120003121AB5E5156401706D90019AE04C
:10116600640860030213FDA3E0641060030213FD2C
:10117600752801752901752A97AB250527E527AA44
:10118600267002052614F9743A1219260524E4F588
:101196002190019AE0FFE521C39F40030213FDABB6
:1011A60028052AE52AAA297002052914F91218E049
:1011B600FFAB250527E527AA267002052614F9EFB9
:1011C6001219260524052180C80523E523C39403A7
:1011D600500302112A0213FDE4F523F515E4F52167
:1011E600E4FF1200030521E521C3941040F27FC5F8
:1011F6001200037F6A1200037F291200037F061282
:1012060000037F111200037F08120003121AB5E5CE
:10121600156401706D90019AE0640E60030213FD7F
:10122600A3E0641160030213FD7528017529017599
:101236002A97AB250527E527AA267002052614F965
:10124600743A1219260524E4F52190019AE0FFE587
:1012560021C39F40030213FDAB28052AE52AAA29CC
:101266007002052914F91218E0FFAB250527E527BA
:10127600AA267002052614F9EF121926052405215F
:1012860080C80523E523C3940350030211E3021328
:10129600FDE4F523F515E4F521E4FF12000305212D
:1012A600E521C3941040F27FC51200037F6A120045
:1012B600037F291200037F061200037F1312000327
:1012C6007FB4120003121AB5E5156401706D900122
:1012D6009AE0640860030213FDA3E064136003024E
:1012E60013FD752801752901752A97AB250527E594
:1012F60027AA267002052614F9743A12192605241F
:10130600E4F52190019AE0FFE521C39F4003021313
:10131600FDAB28052AE52AAA297002052914F91227
:1013260018E0FFAB250527E527AA26700205261437
:10133600F9EF1219260524052180C80523E523C3E4
:101346009403500302129C0213FDE4F523F515E401
:10135600F521E4FF1200030521E521C3941040F2B4
:101366007FC51200037F6A1200037F291200037FE4
:10137600061200037F141200037F37120003121AAD
:10138600B5E5156401706490019AE064087068A37D
:10139600E064147062752801752901752A97AB25DA
:1013A6000527E527AA267002052614F9743A1219AC
:1013B600260524E4F52190019AE0FFE521C39F501C
:1013C60036AB28052AE52AAA297002052914F9123E
:1013D60018E0FFAB250527E527AA26700205261487
:1013E600F9EF1219260524052180CB0523E523C331
:1013F60094035003021355052202029875250175C0
:101406002600752797AB250527E527AA267002052E
:101416002614F974AF121926AB250527E527AA2647
:101426007002052614F9E4121926AB250527E527CF
:10143600AA267002052614F9E4121926AB250527FB
:10144600E527AA267002052614F9E4121926AB250B
:101456000527E527AA267002052614F9E41219269F
:10146600AB250527E527AA267002052614F9E412FE
:101476001926AB250527E527AA267002052614F9A5
:10148600E4121926AB250527E527AA2670020526AC
:1014960014F97402121926AB250527E527AA26702A
:1014A60002052614F97414121926AB250527E5271B
:1014B600AA267002052614F97411121926AB250501
:1014C60027E527AA267002052614F9E5241219260F
:1014D600E4F521E521C39524502374002521F582E6
:1014E600E43400F583E0FFAB250527E527AA26703F
:1014F60002052614F9EF121926052180D6E52412D5
:101506001A13AB250527E527AA267002052614F926
:10151600EF121926AB250527E527AA267002052610
:1015260014F9743C121926E4F521E524240DFFE490
:1015360033FEC3E5219FEE6480F8748098501474DE
:10154600972521F582E43400F583E0FF121AE005C1
:031556002180D71A
:01155900226F
:101A8700E4FFD3ED6480948040131218E06F901543
:0D1A97005A93FF740129F9E43AFA1D80E525
:011AA400221F
:091A13007B017A007997240AFD99
:101A1C009000011218F9FF7E01EEC39D50128F2C1D
:101A2C00EEF582758300A31218F9652CFF0E80E980
:011A3C002287
:091AD60042021700004102190050
:101AA500E4F589758A66758CFCD28CD2A9D2AF22F1
:03000B0002187068
:10187000C0E0C083C082C0D0900218E004F07006BF
:10188000900217E004F0C3900218E094FA90021757
:10189000E094004042E4F0A3F0A3E004F090021BC7
:1018A000E024FE600F24FE60132404701F90021ACF
:1018B000E4F0801890021AE004F0801090021AE020
:1018C00004F0E0D394034004A37464F0900219E0A0
:1018D000C394064002E4F0D0D0D082D083D0E0326E
:0E1AB50000007F017ED87D23DDFEDEFCDFFA1F
:011AC3002200
:0E1AC40000007F2B7E067DCBDDFEDEFCDFFA10
:011AD20022F1
:1016F60002165AE493A3F8E493A34003F68001F29A
:1017060008DFF48029E493A3F85407240CC8C333F4
:10171600C4540F4420C8834004F456800146F6DFC3
:10172600E4800B0102040810204080901AD3E47E66
:10173600019360BCA3FF543F30E509541FFEE493B8
:10174600A360010ECF54C025E060A840B8E493A37F
:10175600FAE493A3F8E493A3C8C582C8CAC583CAAA
:10176600F0A3C8C582C8CAC583CADFE9DEE780BE62
:011ADF000006
:1018E000BB010689828A83E0225002E722BBFE0206
:0918F000E32289828A83E4932239
:1018F900BB010CE58229F582E5833AF583E02250A4
:1019090006E92582F8E622BBFE06E92582F8E222ED
:0D191900E58229F582E5833AF583E4932207
:10192600BB010689828A83F0225002F722BBFE01A0
:02193600F3229A
:00000001FF
