:03000000020146B4
:0C014600787FE4F6D8FD75812B02018D56
:100354005354433846324B33325334204D61737413
:10036400657220466F722043414D5020546573746A
:100374002050726772616D6D65210D0A00535443FC
:100384003846324B33325334204D617374657220D6
:10039400466F722050544320546573742050726722
:0903A40072616D6D65210D0A0006
:0D054B001204F51200267592FF7591FF2233
:1001D20012054BE4F5917BFF7A0379541205107BEB
:1001E200FF7A0379811205267591FFE51DB401FBA3
:1001F200E4F51D539AEF439810F591F521F522E4A9
:10020200FF1205860522E52270020521C39410E53E
:1002120021940040EA7B017A007980900083E0FD1E
:100222001203F3120558120558E51CB40121E4F536
:100232001CF59112057D7F031204AF7B017A0079D0
:1002420000900003E0FD12042712057D7591FF4323
:0A0252009A107591FFE4F51D8091EC
:1004F500759850E4F589758BB8758DFFD28E438E4E
:0B05050040538EFEF518F516C20022D0
:10002600759A50E4F5D775D6F7438E14F519F5177A
:0C003600C20175AF01D2AFD2ACD2AF2234
:100510001203AD6010F599D2002000FD740129F995
:06052000E43AFA80EB2230
:0A03F3008B238A2489258C268D2790
:1003FD00E4F528F529AB23AA24A92585298285288A
:10040D00831203C6FF1205860529E529700205280A
:09041D00C39527E528952640DC73
:0104260022B3
:100526001203AD6010F59BD2012001FD740129F97B
:06053600E43AFA80EB221A
:0A0427008B238A2489258C268D275B
:10043100E4F528F529AB23AA24A925852982852855
:10044100831203C6FF1205720529E52970020528EA
:09045100C39527E528952640DC3F
:01045A00227F
:0B0572002001FDD2018F9B2001FD2223
:080586008F993099FDC2992202
:0300430002045B59
:10045B00C0E0C0F0C083C082C0D075D008E59A3030
:10046B00E105539AFDC201E59A30E006539AFE125C
:0D047B0002D9D0D0D082D083D0F0D0E032B2
:030023000204884C
:10048800C0E0C0F0C083C082C0D075D008309904E5
:10049800C299C200309805C29812025CD0D0D082AE
:0704A800D083D0F0D0E03258
:03059300011A004A
:1002D900E51B702C900081E0900080F0900082E096
:1002E900900081F0A3E59BF0900080E064C5705A0E
:1002F900A3E0646A7054A3E06429704E751B01225F
:100309007483251AF582E43400F583E59BF09000A7
:1003190083E0F513051AE51324FDFFE51AC39F4091
:1003290029E4F51BF51A7B017A007980E51314FDA0
:100339001200038F1E747F2513F582E43400F583C0
:0B034900E0B51E06751D01539AEF225F
:10025C00E510702C900001E0900000F0900002E09E
:10026C00900001F0A3E599F0900000E064C5705C8B
:10027C00A3E0646A7056A3E06429705075100122E3
:10028C0074032514F582E43400F583E599F09000AD
:10029C0003E0F5120514E51224FDFFE514C39F409D
:1002AC002BE4F510F5147B017A007900E51214FDAE
:1002BC001200038F1174FF2512F582E434FFF583CD
:0D02CC00E0B51108B2B4751C015398EF2283
:0204AF008F2399
:1004B100E4F524E524C3952350187FAA1205727F21
:1004C100AA1205727FAA1205727FC0120572052455
:0204D10080E1C8
:0104D3002206
:08057D007F0B7EBEDEFEDFFCF9
:010585002253
:0C0558007F017ED87D23DDFEDEFCDFFA93
:010564002274
:0E053C0000007F167E037DE3DDFEDEFCDFFAAD
:01054A00228E
:0C0565007F2B7E067DCBDDFEDEFCDFFA86
:010571002267
:10004600005EBCE2613FDD83C29C7E20A3FD1F41B2
:100056009DC3217FFCA2401E5F01E3BD3E6082DCA2
:10006600237D9FC1421CFEA0E1BF5D0380DE3C6292
:10007600BEE0025CDF81633D7C22C09E1D43A1FF82
:100086004618FAA427799BC584DA3866E5BB590772
:10009600DB856739BAE406581947A5FB7826C49A62
:1000A600653BD987045AB8E6A7F91B45C6987A2452
:1000B600F8A6441A99C7257B3A6486D85B05E7B942
:1000C6008CD2306EEDB3510F4E10F2AC2F7193CD32
:1000D600114FADF3702ECC92D38D6F31B2EC0E5022
:1000E600AFF1134DCE90722C6D33D18F0C52B0EE12
:1000F600326C8ED0530DEFB1F0AE4C1291CF2D7302
:10010600CA947628ABF517490856B4EA6937D58BF1
:100116005709EBB536688AD495CB2977F4AA4816E1
:10012600E9B7550B88D6346A2B7597C94A14F6A8D1
:10013600742AC896154BA9F7B6E80A54D7896B35C1
:05058E008E2A8F2B22D4
:1004D4009000011203C6FF7E01EEC39D50128F1FD0
:1004E400EEF582758300A31203C6651FFF0E80E933
:0104F40022E5
:10000300E4FFD3ED6480948040131203AD6F90003E
:0D0013004693FF740129F9E43AFA1D80E5D7
:0100200022BD
:100152000201D2E493A3F8E493A34003F68001F2F0
:1001620008DFF48029E493A3F85407240CC8C333AE
:10017200C4540F4420C8834004F456800146F6DF7D
:10018200E4800B0102040810204080900593E47E75
:10019200019360BCA3FF543F30E509541FFEE49372
:1001A200A360010ECF54C025E060A840B8E493A339
:1001B200FAE493A3F8E493A3C8C582C8CAC583CA64
:1001C200F0A3C8C582C8CAC583CADFE9DEE780BE1C
:010596000064
:1003AD00BB010689828A83E0225002E722BBFE024E
:0903BD00E32289828A83E4932281
:1003C600BB010CE58229F582E5833AF583E02250EC
:1003D60006E92582F8E622BBFE06E92582F8E22236
:0D03E600E58229F582E5833AF583E4932250
:00000001FF
