:0300000002034EAA
:0C034E00787FE4F6D8FD7581300203953D
:100455005354433846324B33325334204D61737411
:10046500657220466F722043414D50205465737468
:100475002050726772616D6D65210D0A00535443FA
:100485003846324B33325334204D617374657220D4
:10049500466F722050544320546573742050726720
:0904A50072616D6D65210D0A0004
:1006CB001200261200067592FF7591FFC288D2A800
:0506DB007F1E0201F783
:1005DF001206CBE4F5917BFF7A0479551206897BDD
:1005EF00FF7A0479821206B5759103D292C2B47F55
:0605FF000212014680F922
:0300030002055C97
:10055C00C0E0C0F0C083C082C0D075D00830B20BF0
:10056C001206EF30B20E752E01800912070B20B265
:0F057C0003752E02D0D0D082D083D0F0D0E032E1
:10002600759850E4F589758BB8758DFFD28E438E21
:0B00360040538EFEF529F527C2002282
:10000600759A5075D78075D6FB438E14E4F52AF59C
:0D00160028C20175AF01D2AFD2ACD2AF222B
:100689001204AE6010F599D2002000FD740129F919
:06069900E43AFA80EB22B6
:0A04F4008B148A1589168C178D18D9
:1004FE00E4F519F51AAB14AA15A916851A828519F1
:10050E00831204C7FF12072C051AE51A700205198B
:09051E00C39518E519951740DC9E
:0105270022B1
:10069F001204AE6010F599D2002000FD740129F903
:0606AF00E43AFA80EB22A0
:1006B5001204AE6010F59BD2012001FD740129F9E9
:0606C500E43AFA80EB228A
:0A0528008B128A1389148C158D16AE
:10053200E4F517F518AB12AA13A9148518828517CA
:10054200831204C7FF1207180518E5187002051771
:09055200C39516E517951540DC70
:01055B00227D
:0B0718002001FDD2018F9B2001FD227B
:08072C008F993099FDC299225A
:0300430002058B28
:10058B00C0E0C0F0C083C082C0D075D008E59A30FF
:10059B00E105539AFDC201E59A30E006539AFE122B
:0D05AB0002A8D0D0D082D083D0F0D0E032B2
:030023000205B81B
:1005B800C0E0C0F0C083C082C0D075D008309904B4
:1005C800C299C200309805C2981203DAD0D0D082FE
:0705D800D083D0F0D0E03227
:10064B0046696E645F505049445F4E4F5F414E5355
:10065B0057455220210D0A00C56A29070814CB0003
:03073900012B0091
:1002A800E52C7040900081E0900080F0900082E0A2
:1002B800900081F0A3E59BF0900080E0FFB4C50DAD
:1002C800A3E0B46A08A3E0B42903752C01EF64AF76
:1002D8007073900081E064AF706BA3E064AF7065E9
:1002E800752C01227483252BF582E43400F583E50F
:1002F8009BF0900083E0F524052BE52424FDFFE521
:100308002BC39F4040E4F52CF52B7B017A007980C4
:10031800E52414FD12066B8F30747F2524F582E4E2
:100328003400F583E06530701C900080E0B4AF0FB6
:10033800A3E0B4AF0AA3E0B4AF05752F0980037535
:060348002F01539AEF2281
:1003DA00E521702C900001E0900000F0900002E00E
:1003EA00900001F0A3E599F0900000E064C5705A0E
:1003FA00A3E0646A7054A3E06429704E7521012257
:10040A0074032525F582E43400F583E599F090001C
:10041A0003E0F5230525E52324FDFFE525C39F40D9
:10042A0029E4F521F5257B017A007900E52314FDFD
:10043A0012066B8F2274FF2523F582E434FFF583BD
:0B044A00E0B52206752D015398EF224B
:020605008F1252
:10060700E4F513E513C3951250187FAA1207187F54
:10061700AA1207187FAA1207187FC0120718051316
:0206270080E170
:0106290022AE
:020146008F1018
:10014800E52F64017065C2B4F52F539AEF439810F8
:10015800F591F511E4FF12072C0511E511C3941070
:1001680040F27B017A007980900083E0FD1204F46C
:100178001206FE1206FE1206FE1206FEE52DB40158
:1001880021E4F52DF591120723AF101206057B0126
:100198007A007900900003E0FD1205281207237504
:1001A8009103439A10759103E4F52FE52FB4090BD9
:1001B800D2B4E4F52F439A10759103E52E640270CA
:1001C8002DF52EF511539AEFF591B2B0AF10120636
:1001D800057B017A0179007D1B1205281206FE3085
:0E01E800B209759103439A10D2B02230B2DCF6
:0101F60022E6
:0201F7008F1067
:1001F900E4F512E512C39510400302029DE4F511DE
:10020900E4FF12072C0511E511C3941040F27BFF9E
:100219007A0679637D071204F4E4F513E5122402E2
:10022900FFE433FEC3E5139FEE6480F874809850B1
:10023900071206FE051380E4E52D64017051900054
:1002490019E0643C704990010074AFF0A3F0A3F089
:1002590075110374002511F582E43400F583E0FF7C
:1002690074002511F582E43401F583EFF00511E5F9
:1002790011B41ADF7B017A017900900103E014FDC2
:1002890012066B90011AEFF0C2B0E4F52D80050556
:0F029900120201FCD2B07BFF7A06794B02069F5E
:080723007F0B7EBEDEFEDFFC51
:01072B0022AB
:0C06FE007F017ED87D23DDFEDEFCDFFAEC
:01070A0022CC
:0E06E00000007F167E037DE3DDFEDEFCDFFA08
:0106EE0022E9
:0C070B007F2B7E067DCBDDFEDEFCDFFADE
:0107170022BF
:0E06EF0000007F097E687D8BDDFEDEFCDFFAF9
:0106FD0022DA
:10004600005EBCE2613FDD83C29C7E20A3FD1F41B2
:100056009DC3217FFCA2401E5F01E3BD3E6082DCA2
:10006600237D9FC1421CFEA0E1BF5D0380DE3C6292
:10007600BEE0025CDF81633D7C22C09E1D43A1FF82
:100086004618FAA427799BC584DA3866E5BB590772
:10009600DB856739BAE406581947A5FB7826C49A62
:1000A600653BD987045AB8E6A7F91B45C6987A2452
:1000B600F8A6441A99C7257B3A6486D85B05E7B942
:1000C6008CD2306EEDB3510F4E10F2AC2F7193CD32
:1000D600114FADF3702ECC92D38D6F31B2EC0E5022
:1000E600AFF1134DCE90722C6D33D18F0C52B0EE12
:1000F600326C8ED0530DEFB1F0AE4C1291CF2D7302
:10010600CA947628ABF517490856B4EA6937D58BF1
:100116005709EBB536688AD495CB2977F4AA4816E1
:10012600E9B7550B88D6346A2B7597C94A14F6A8D1
:10013600742AC896154BA9F7B6E80A54D7896B35C1
:050734008E1B8F1C224A
:10062A009000011204C7FF7E01EEC39D50128F1D78
:10063A00EEF582758300A31204C7651DFF0E80E9DB
:01064A00228D
:10066B00E4FFD3ED6480948040131204AE6F9000CE
:0D067B004693FF740129F9E43AFA1D80E569
:01068800224F
:10035A000205DFE493A3F8E493A34003F68001F2D5
:10036A0008DFF48029E493A3F85407240CC8C333A4
:10037A00C4540F4420C8834004F456800146F6DF73
:10038A00E4800B0102040810204080900739E47EC3
:10039A00019360BCA3FF543F30E509541FFEE49368
:1003AA00A360010ECF54C025E060A840B8E493A32F
:1003BA00FAE493A3F8E493A3C8C582C8CAC583CA5A
:1003CA00F0A3C8C582C8CAC583CADFE9DEE780BE12
:01073C0000BC
:1004AE00BB010689828A83E0225002E722BBFE024C
:0904BE00E32289828A83E493227F
:1004C700BB010CE58229F582E5833AF583E02250EA
:1004D70006E92582F8E622BBFE06E92582F8E22234
:0D04E700E58229F582E5833AF583E493224E
:00000001FF
