:10000000020046E4FFD3ED64809480401312021F87
:100010006F9003C393FF740129F9E43AFA1D80E558
:0100200022BD
:100023000202BB759A50E4F5D775D6F7438E14F5E3
:0F00330019F517C20175AF01D2AFD2ACD2AF220F
:10004300020265787FE4F6D8FD75812602008D02F1
:1000530002E2E493A3F8E493A34003F68001F208D9
:10006300DFF48029E493A3F85407240CC8C333C4F2
:10007300540F4420C8834004F456800146F6DFE45D
:10008300800B01020408102040809003BFE47E012E
:100093009360BCA3FF543F30E509541FFEE493A3D0
:1000A30060010ECF54C025E060A840B8E493A3FAE2
:1000B300E493A3F8E493A3C8C582C8CAC583CAF06E
:1000C300A3C8C582C8CAC583CADFE9DEE780BEE527
:1000D3001B702C900081E0900080F0900082E090F3
:1000E3000081F0A3E59BF0900080E064C5705FA3FE
:1000F300E0646A7059A3E064297053751B0122748C
:1001030083251AF582E43400F583E59BF0900083A0
:10011300E0F513051AE51324FDFFE51AC39F402EEE
:10012300E4F51BF51A7B017A007980E51314FD12BF
:1001330000038F1D747F2513F582E43400F583E0FB
:10014300B51D08B2B0B2B1751C0122751C0222E5BF
:1001530010702C900001E0900000F0900002E090FD
:100163000001F0A3E599F0900000E064C57053A38B
:10017300E0646A704DA3E06429704775100122742E
:10018300032514F582E43400F583E599F090000328
:10019300E0F5120514E51224FD65147025F510F53C
:1001A300147B017A007900E51214FD1200038F110C
:1001B30074FF2512F582E434FFF583E0B51103756E
:1001C3001C01225354433846324B33325334204DAF
:1001D300617374657220466F722043414D50205401
:1001E3006573742050726772616D6D65210D0A002D
:1001F3005354433846324B33325334204D61737476
:10020300657220466F7220505443205465737420E6
:1002130050726772616D6D65210D0A00BB0106891D
:10022300828A83E0225002E722BBFE02E322898214
:100233008A83E49322BB010CE58229F582E5833AA4
:10024300F583E0225006E92582F8E622BBFE06E9A3
:100253002582F8E222E58229F582E5833AF583E4F3
:100263009322C0E0C0F0C083C082C0D075D008E53F
:100273009A30E105539AFDC201E59A30E006539A9C
:10028300FE1200D2D0D0D082D083D0F0D0E0328B17
:10029300218A228923E4FFEFC39D501BAB21052351
:1002A300E523AA227002052214F912021FF59BD23C
:1002B300012001FD0F80E022C0E0C0F0C083C082B6
:1002C300C0D075D008309904C299C200309805C2D5
:1002D30098120152D0D0D082D083D0F0D0E0321225
:1002E300037A7BFF7A0179C612033F7BFF7A017998
:1002F300F31203557591FFC2B4E51CB401FB80F9F9
:10030300900001120238FF7E01EEC39D50128F262A
:10031300EEF582758300A31202386526FF0E80E98D
:1003230022759850E4F589758BB8758DFFD28E438D
:100333008E40538EFEF518F516C2002212021F607E
:1003430010F599D2002000FD740129F9E43AFA80EE
:10035300EB2212021F6010F59BD2012001FD7401F4
:1003630029F9E43AFA80EB2200007F167E037DE34D
:10037300DDFEDEFCDFFA221203241200267592FF53
:100383007591FF227F017ED87D23DDFEDEFCDFFA3F
:10039300227F2B7E067DCBDDFEDEFCDFFA227F0B88
:1003A3007EBEDEFEDFFC222001FDD2018F9B2220D8
:1003B30000FDD2008F99228E1E8F1F22011A00008A
:1003C300005EBCE2613FDD83C29C7E20A3FD1F4132
:1003D3009DC3217FFCA2401E5F01E3BD3E6082DC22
:1003E300237D9FC1421CFEA0E1BF5D0380DE3C6212
:1003F300BEE0025CDF81633D7C22C09E1D43A1FF02
:100403004618FAA427799BC584DA3866E5BB5907F1
:10041300DB856739BAE406581947A5FB7826C49AE1
:10042300653BD987045AB8E6A7F91B45C6987A24D1
:10043300F8A6441A99C7257B3A6486D85B05E7B9C1
:100443008CD2306EEDB3510F4E10F2AC2F7193CDB1
:10045300114FADF3702ECC92D38D6F31B2EC0E50A1
:10046300AFF1134DCE90722C6D33D18F0C52B0EE91
:10047300326C8ED0530DEFB1F0AE4C1291CF2D7381
:10048300CA947628ABF517490856B4EA6937D58B71
:100493005709EBB536688AD495CB2977F4AA481661
:1004A300E9B7550B88D6346A2B7597C94A14F6A851
:1004B300742AC896154BA9F7B6E80A54D7896B3541
:00000001FF
