:10000000020046E4FFD3ED64809480401312013C6B
:100010006F9002E293FF740129F9E43AFA1D80E53A
:0100200022BD
:10002300020182759A50E4F5D775D6F7438E14F51D
:0F00330017F515C20175AF01D2AFD2ACD2AF2213
:100043000201B9787FE4F6D8FD75812002008D02A4
:1000530001E6E493A3F8E493A34003F68001F208D6
:10006300DFF48029E493A3F85407240CC8C333C4F2
:10007300540F4420C8834004F456800146F6DFE45D
:10008300800B01020408102040809002DEE47E0110
:100093009360BCA3FF543F30E509541FFEE493A3D0
:1000A30060010ECF54C025E060A840B8E493A3FAE2
:1000B300E493A3F8E493A3C8C582C8CAC583CAF06E
:1000C300A3C8C582C8CAC583CADFE9DEE780BEE527
:1000D30019702C900081E0900080F0900082E090F5
:1000E3000081F0A3E59BF0900080E064017049A3D8
:1000F300E064027043A3E06403703D751901227448
:10010300832518F582E43400F583E59BF00518E5B3
:100113001864207023F519F5187B017A0079807D26
:10012300201200038F1B9000A0E0B51B08B2B1B2F0
:10013300B0751A0122751A0222BB010689828A83CD
:10014300E0225002E722BBFE02E32289828A83E493
:100153009322BB010CE58229F582E5833AF583E01E
:10016300225006E92582F8E622BBFE06E92582F83D
:10017300E222E58229F582E5833AF583E49322C0FE
:10018300E0C083C082C0D0309904C299C2003098C5
:100193001CC29874002514F582E43400F583E599B4
:1001A300F00514E514C394804003751400D0D0D037
:1001B30082D083D0E032C0E0C0F0C083C082C0D020
:1001C30075D008E59A30E105539AFDC201E59A30EE
:1001D300E006539AFE1200D2D0D0D082D083D0F062
:1001E300D0E0321202997BFF7A02790D12026D7B05
:1001F300FF7A02790D120283E51AB40103E4F51ABA
:10020300E51AB402F3E4F51A80EE53544338463248
:100213004B33325334204D617374657220546573CC
:10022300742050726772616D6D65210D0A00900034
:1002330001120155FF7E01EEC39D50128F1EEEF594
:1002430082758300A3120155651EFF0E80E9227596
:100253009850E4F589758BB8758DFFD28E438E4027
:10026300538EFEF516F514C2002212013C6010F500
:1002730099D2002000FD740129F9E43AFA80EB22B7
:1002830012013C6010F59BD2012001FD740129F994
:10029300E43AFA80EB221202521200267592FF759D
:1002A30091FF227F017ED87D23DDFEDEFCDFFA2273
:1002B3007F2B7E067DCBDDFEDEFCDFFA227F0B7E0D
:1002C300BEDEFEDFFC222001FDD2018F9B22200037
:1002D300FDD2008F99228E1C8F1D22011800000071
:1002E3005EBCE2613FDD83C29C7E20A3FD1F419D76
:1002F300C3217FFCA2401E5F01E3BD3E6082DC237D
:100303007D9FC1421CFEA0E1BF5D0380DE3C62BE57
:10031300E0025CDF81633D7C22C09E1D43A1FF465A
:1003230018FAA427799BC584DA3866E5BB5907DB3D
:10033300856739BAE406581947A5FB7826C49A6538
:100343003BD987045AB8E6A7F91B45C6987A24F81F
:10035300A6441A99C7257B3A6486D85B05E7B98C0E
:10036300D2306EEDB3510F4E10F2AC2F7193CD110D
:100373004FADF3702ECC92D38D6F31B2EC0E50AFE4
:10038300F1134DCE90722C6D33D18F0C52B0EE32EF
:100393006C8ED0530DEFB1F0AE4C1291CF2D73CACA
:1003A300947628ABF517490856B4EA6937D58B57C5
:1003B30009EBB536688AD495CB2977F4AA4816E9B0
:1003C300B7550B88D6346A2B7597C94A14F6A874A7
:0F03D3002AC896154BA9F7B6E80A54D7896B3597
:00000001FF
