:10004600005EBCE2613FDD83C29C7E20A3FD1F41B2
:100056009DC3217FFCA2401E5F01E3BD3E6082DCA2
:10006600237D9FC1421CFEA0E1BF5D0380DE3C6292
:10007600BEE0025CDF81633D7C22C09E1D43A1FF82
:100086004618FAA427799BC584DA3866E5BB590772
:10009600DB856739BAE406581947A5FB7826C49A62
:1000A600653BD987045AB8E6A7F91B45C6987A2452
:1000B600F8A6441A99C7257B3A6486D85B05E7B942
:1000C6008CD2306EEDB3510F4E10F2AC2F7193CD32
:1000D600114FADF3702ECC92D38D6F31B2EC0E5022
:1000E600AFF1134DCE90722C6D33D18F0C52B0EE12
:1000F600326C8ED0530DEFB1F0AE4C1291CF2D7302
:10010600CA947628ABF517490856B4EA6937D58BF1
:100116005709EBB536688AD495CB2977F4AA4816E1
:10012600E9B7550B88D6346A2B7597C94A14F6A8D1
:10013600742AC896154BA9F7B6E80A54D7896B35C1
:1003CE00900001120253FF7E01EEC39D50128F1E4C
:1003DE00EEF582758300A3120253651EFF0E80E9AF
:0103EE0022EC
:10000300E4FFD3ED64809480401312023A6F9000B2
:0D0013004693FF740129F9E43AFA1D80E5D7
:0100200022BD
:03032300011A00BC
:1001D200E51B702C900081E0900080F0900082E09E
:1001E200900081F0A3E59BF0900080E064017047ED
:1001F200A3E064027041A3E06403703B751B01221B
:100202007483251AF582E43400F583E59BF0051A20
:10021200E51A64207021F51BF51A7B017A007980BA
:100222007D201200038F1D9000A0E0B51D06B2B024
:08023200751C0122751C02225B
:1003EF00759850E4F589758BB8758DFFD28E438E55
:0B03FF0040538EFEF54BF549C2002272
:10002600759A50E4F5D775D6F7438E14F54CF54A14
:0C003600C20175AF01D2AFD2ACD2AF2234
:10040A0012023A6010F599D2002000FD740129F910
:06041A00E43AFA80EB2237
:0A02B7008B108A1189128C138D142C
:1002C100E4FFFEC3EF9514EE9513501FAB1005121A
:1002D100E512AA117002051114F912023AF599D228
:0B02E100002000FD0FBF00010E80D8C0
:0102EC0022EF
:0A02ED008B158A1689178C188D19DD
:1002F700E4FFFEC3EF9519EE9518501FAB150517D0
:10030700E517AA167002051614F912023AF59BD2E0
:0B031700012001FD0FBF00010E80D887
:0103220022B8
:1004200012023A6010F59BD2012001FD740129F9F6
:06043000E43AFA80EB2221
:080466002001FDD2018F9B2251
:08046E002000FDD2008F99224D
:0300430002035263
:10035200C0E0C0F0C083C082C0D075D008E59A303A
:10036200E105539AFDC201E59A30E006539AFE1266
:0D03720001D2D0D0D082D083D0F0D0E032C4
:0300230002028056
:10028000C0E0C083C082C0D0309904C299C200309F
:10029000981CC29874002549F582E43400F583E582
:1002A00099F00549E549C394804003754900D0D0D1
:0702B000D082D083D0E032C0
:1003AA005354433846324B3332533420536C6176BC
:1003BA00657220546573742050726772616D6D6541
:0403CA00210D0A00F7
:10032600202821AAAAAAC0AAAAAA01020322334403
:10033600CFFFEAAACEEE1344FEEF15512332127711
:0B034600FE4EE56E1EE7E2EAA121FA80
:0D0436001203EF1200267592FFE4F59122EB
:08045D007F0B7EBEDEFEDFFC1A
:010465002274
:0C0443007F2B7E067DCBDDFEDEFCDFFAA9
:01044F00228A
:0C0450007F057E347DC3DDFEDEFCDFFA9C
:01045C00227D
:10037F001204367BFF7A0379AA12040A7BFF7A03F1
:10038F0079AA120420E4F591FB7A0079217D28FCEB
:0B039F001202EDE4F59112045080EA18
:03000000020146B4
:0C014600787FE4F6D8FD75814C02018D35
:10023A00BB010689828A83E0225002E722BBFE02C2
:09024A00E32289828A83E49322F5
:10025300BB010CE58229F582E5833AF583E0225060
:1002630006E92582F8E622BBFE06E92582F8E222AA
:0D027300E58229F582E5833AF583E49322C4
:1001520002037FE493A3F8E493A34003F68001F241
:1001620008DFF48029E493A3F85407240CC8C333AE
:10017200C4540F4420C8834004F456800146F6DF7D
:10018200E4800B0102040810204080900323E47EE7
:10019200019360BCA3FF543F30E509541FFEE49372
:1001A200A360010ECF54C025E060A840B8E493A339
:1001B200FAE493A3F8E493A3C8C582C8CAC583CA64
:1001C200F0A3C8C582C8CAC583CADFE9DEE780BE1C
:0103510000AB
:00000001FF
