:03000000020146B4
:0C014600787FE4F6D8FD75815702018D2A
:1002C1005354433846324B3332533420536C6176A6
:1002D100657220546573742050726772616D6D652B
:1002E100210D0A004F70656E2B2B2B2B2B2B2B2BEB
:1002F1002B2B2B2B2B2B2B2B2B2B2B2B2B2B2B2B4D
:100301002B0D0A00436C6F73652D2D2D2D2D2D2D79
:100311002D2D2D2D2D2D2D2D2D2D2D2D2D2D2D2D0C
:060321002D2D2D0D0A0038
:1003C800202821AAAAAAC0AAAAAAC56A290605F4A9
:1003D800CFFFEAAACEEE1344FEEF1551233212776F
:0B03E800FE4EE56E1EE7E2EAA121FADE
:0D0533001204EC1200267592FFE4F59122EF
:10032700E4F510F5111205337BFF7A0279C1120546
:10033700077BFF7A0279C112051D7D027F02120237
:10034700518E108F11D3E5119400E51064809480CD
:100357007BFF401B7A0279E5120507B2B07B017A71
:10036700007980900083E0FD7C0012043680077AD4
:0B03770003790512050712054D80BF39
:1004EC00759850E4F589758BB8758DFFD28E438E57
:0B04FC0040538EFEF556F554C200225E
:10002600759A50E4F5D775D6F7438E14F557F555FE
:0C003600C20175AF01D2AFD2ACD2AF2234
:100507001203826010F599D2002000FD740129F9C9
:06051700E43AFA80EB2239
:0A0436008B128A1389148C158D16A1
:10044000E4F517F518AB12AA13A9148518828517BD
:100450008312039BFF12056B0518E5187002051740
:09046000C39516E517951540DC63
:010469002270
:0A046A008B168A1789188C198D1A59
:10047400E4F51BF51CAB16AA17A918851C82851B6D
:100484008312039BFF120563051CE51C7002051B08
:09049400C3951AE51B951940DC23
:01049D00223C
:10051D001203826010F59BD2012001FD740129F9AF
:06052D00E43AFA80EB2223
:080563002001FDD2018F9B2253
:08056B008F993099FDC299221D
:0300430002049E16
:10049E00C0E0C0F0C083C082C0D075D008E59A30ED
:1004AE00E105539AFDC201E59A30E006539AFE1219
:0D04BE0001D2D0D0D082D083D0F0D0E03277
:030023000203FFD6
:1003FF00C0E0C083C082C0D0309904C299C200301F
:10040F00981CC29874002554F582E43400F583E5F6
:10041F0099F00554E554C394804003755400D0D02F
:07042F00D082D083D0E0323F
:0B03F300014900064AC56A290605F40E
:1001D200E550702C900081E0900080F0900082E069
:1001E200900081F0A3E59BF0900080E064C5705E12
:1001F200A3E0646A7058A3E064297052755001222A
:1002020074832549F582E43400F583E59BF0900080
:1002120083E0F5520549E55224FDFFE549C39F40BD
:100222002DE4F550F5497B017A007980E55214FD01
:100232001200038F53747F2552F582E43400F58354
:0F024200E0B55307755101539AEF22755102220F
:040251008F128D1368
:10025500439A10E4F59112055AE4F514E514C39593
:100265001250187FAA1205637FAA1205637FAA128E
:1002750005637FC0120563051480E17B007A007970
:100285004A7D077C0012046A7591FF12055AE4F550
:1002950015E515C39513500712054D051580F2E5B3
:1002A50051B40113E4F551900085E0FEA3E07C0014
:0B02B5002400FFEC3EFE227EFF7FFFD6
:0102C000221B
:08055A007F0B7EBEDEFEDFFC1C
:010562002276
:0C0540007F2B7E067DCBDDFEDEFCDFFAAB
:01054C00228C
:0C054D007F057E347DC3DDFEDEFCDFFA9E
:01055900227F
:10004600005EBCE2613FDD83C29C7E20A3FD1F41B2
:100056009DC3217FFCA2401E5F01E3BD3E6082DCA2
:10006600237D9FC1421CFEA0E1BF5D0380DE3C6292
:10007600BEE0025CDF81633D7C22C09E1D43A1FF82
:100086004618FAA427799BC584DA3866E5BB590772
:10009600DB856739BAE406581947A5FB7826C49A62
:1000A600653BD987045AB8E6A7F91B45C6987A2452
:1000B600F8A6441A99C7257B3A6486D85B05E7B942
:1000C6008CD2306EEDB3510F4E10F2AC2F7193CD32
:1000D600114FADF3702ECC92D38D6F31B2EC0E5022
:1000E600AFF1134DCE90722C6D33D18F0C52B0EE12
:1000F600326C8ED0530DEFB1F0AE4C1291CF2D7302
:10010600CA947628ABF517490856B4EA6937D58BF1
:100116005709EBB536688AD495CB2977F4AA4816E1
:10012600E9B7550B88D6346A2B7597C94A14F6A8D1
:10013600742AC896154BA9F7B6E80A54D7896B35C1
:1004CB0090000112039BFF7E01EEC39D50128F1D06
:1004DB00EEF582758300A312039B651DFF0E80E969
:0104EB0022EE
:10000300E4FFD3ED6480948040131203826F900069
:0D0013004693FF740129F9E43AFA1D80E5D7
:0100200022BD
:10015200020327E493A3F8E493A34003F68001F299
:1001620008DFF48029E493A3F85407240CC8C333AE
:10017200C4540F4420C8834004F456800146F6DF7D
:10018200E4800B01020408102040809003C8E47E42
:10019200019360BCA3FF543F30E509541FFEE49372
:1001A200A360010ECF54C025E060A840B8E493A339
:1001B200FAE493A3F8E493A3C8C582C8CAC583CA64
:1001C200F0A3C8C582C8CAC583CADFE9DEE780BE1C
:0103FE0000FE
:10038200BB010689828A83E0225002E722BBFE0279
:09039200E32289828A83E49322AC
:10039B00BB010CE58229F582E5833AF583E0225017
:1003AB0006E92582F8E622BBFE06E92582F8E22261
:0D03BB00E58229F582E5833AF583E493227B
:00000001FF
