:1015610043B203E4F5B943B980FF0FBFC8FC43B9E7
:0C157100C0E5B930E5FB43A90343EF04DB
:01157D00224B
:10160500438E1075CA7F75CB4475CC7F75CD44D29A
:05161500AD75C80422C0
:10157E0043A410759810438E08758D30858D8B534E
:0C158E00890F438920D28EC299D2AC2272
:1015200043FF80900000AF82AE83E4FCFD7B407AF5
:101530009CF9F8D31205494003A380EA43EF0275F2
:02154000AF20DA
:011542002286
:1015B60043A40843D4CF43A5C053F2DF43D53075C7
:0B15C600E10375E24075E401C29622CB
:081628008F993099FDC299224F
:061497008B3A8A3B893C00
:10149D00E4FEAB3DAA3EA93F8E82758300120499EE
:1014AD00FDAB3AAA3BA93C8E82758300120499FCD0
:1014BD006D60040EAF0622EC7005ED7002FF220E7A
:0214CD0080D0CD
:06100F008B3A8A3B893C8C
:10101500E4F542F541F540F53F120480FFC39430F5
:101025004006EFD3943940028077E4F53DE53DC3B2
:10103500940A505DAB3AAA3BA93C120480FFC394C5
:1010450030404EEFD39439504812048024D0F53EF9
:10105500AF42AE41AD40AC3FE47B0AFAF9F8120469
:10106500FA8F428E418D408C3FE4FCFDFEE5422522
:101075003EF542EE3541F541ED3540F540EC353F65
:10108500F53F053D7401253CF53CE4353BF53B80DA
:101095009CE53DC3940A5009AF42AE41AD40AC3F1B
:0710A5002274FFFFFEFDFCB9
:0110AC002221
:060B58008B3A8A3B893C48
:100B5E00E4FF7E01F541E94A4B600CE53F453E4519
:100B6E003D6004E54070037F0022EFC394FF501DEB
:100B7E00AB3AAA3BA93C8F82758300120499FDC340
:100B8E0094204009EDD3947E50030F80DDEFD39473
:100B9E00FA40037F00228F41E4FFEFC395415014CA
:100BAE00AB3AAA3BA93C8F82758300120499B420FC
:100BBE00030F80E6E54114FDEFD39D40037F002235
:100BCE00E5406E7040FDAB3AAA3BA93C8F8275831F
:100BDE0000120499FCD394204018EC947F5013AB70
:100BEE003DAA3EA93F8D82758300EC1204D80D0FED
:100BFE0080D4AB3DAA3EA93F0D8D82758300E412D1
:100C0E0004D8AF0522EFC395415015AB3AAA3BA9C4
:100C1E003C8F82758300120499642060030F80E577
:100C2E00E54114FDEFD39D40037F0022EFC39541B4
:100C3E005014AB3AAA3BA93C8F82758300120499DB
:100C4E00B420030F80E6E54114FDEFD39D40037FF2
:060C5E0000220E020BCE85
:10159A00C2AF75B7A575B7F1758F03EF25E07582F0
:0C15AA0000F58374FFF0E4F58FD2AF224F
:101543008F828E83E4936D6014C2AF758F0175B77C
:0E155300A575B7F1EDF0E4F58FD2AF80E72279
:081256008C2A8D2BA907AC03C3
:10125E00E9752D0025E0F52CF583E52D252BF5827E
:10126E00E583352AF583E4936C6057E4FBFAE52DAC
:10127E002BF582E52C3AF583E493FF742E2BF8A61A
:10128E00070BBB00010AEB640A4A70E2AF011215AC
:10129E009AE4FAFBE52BB50309E52AB50204AD0481
:1012AE008006742E2BF8E6FDAF2DAE2C12154305DD
:1012BE002DE52D7002052C0BBB00010AEB640A4ACA
:0212CE0070D2DC
:0112D00022FB
:100A4500151615161516A816A60308A60208A6015A
:100A550015161516A816A60408A60515161516A822
:0C0A650016A60608A607E51624F2F516F2
:100A7100240BF8766A087600E516240DF8E4F6E50D
:100A810016240BF8E6FE08E6F5828E83740393F4D0
:100A91007004740293F46016E516240DF806E51649
:100AA100240BF808740926F618E436F680D1E51609
:100AB100240DF8E6FFFDA8160808760008A605E54E
:100AC10016240EF8E6FC08E6FDE5162404F8A60453
:100AD10008A605E5162410F8E6FC08E6FDE516244F
:100AE10006F8A60408A605E5162412F8860308E60A
:100AF100FA08E6F9E5162408F8A60308A60208A6EE
:100B010001EF75F009A42400FFE5F0346AA816F698
:100B110008A607E516240DF8E4F6E516240DF8E617
:100B2100C39409502BE516240DF8E6FDA8160826F6
:100B3100FFE41836FE7B00A9160909E92DF9E43313
:100B4100FA120480FD121543E516240DF80680CA39
:070B5100E5162415F516223C
:1015D1007F3312159A7B007A66E4FCEC2BFFE43A28
:0A15E100FEE4FD1215430CBC05F1F9
:0115EB0022DD
:1015EC0048656C6C6F204D73674F530D0A00657224
:0915FC00726F72205461736B00E0
:100D660012133EE512451145107003020E17C28399
:100D7600AB10AA11A91212048024FE603604705327
:100D860090000212058CC003C002C001AB10AA116C
:100D9600A912900001120499FDD001D002D00312CD
:100DA6000ECBAB10AA11A91290000212058C1214D8
:100DB6004F80397BFF7A1579EC120090752A02E490
:100DC600F52BF52CF52DF52E7FD07E07FDFC120EAA
:100DD6001D8019AB10AA11A912120480FD7C007E99
:100DE600007F057BFF7A1579FA120A45C2AFAB1070
:100DF600AA11A912E41204C6AB10AA11A9129000F6
:100E06000512058C8B108A118912D2AFD283020D7E
:070E160069120026020D69BC
:1000030064656C61797461736B206F766572666C7D
:100013006F770073797374656D207265736574000F
:0C14FC00060A00000000000002080000CA
:03002B000208F5D3
:1008F500C0E0C0F0C083C082C0D075D000C000C0C9
:0D09050001C002C003C004C005C006C00749
:10091200E50945086008E509150970021508752200
:1009220000E52275F009A424B4F582E43405F583C8
:10093200E0FCA3E0FDA3E0FEA3E0FFEC4D4E4F7010
:10094200030209E1E52275F009A424B4F582E43436
:1009520005F583E0FCA3E0FDA3E0FEA3E024FFFF96
:10096200EE34FFFEED34FFFDEC34FFFCE52275F0C2
:1009720009A424B4F582E43405F583120580E52246
:1009820075F009A424B4F582E43405F583E0FCA3F0
:10099200E0FDA3E0FEA3E0FFE4FBFAF9F8C31205D1
:1009A2005F703CE52275F009A424BAF582E43405AF
:1009B200F583E0FBA3E0FAA3E0F9E52275F009A4D0
:1009C20024B9F582E43405F583E0FDE52275F009EA
:1009D200A424B8F582E43405F583E0FF120C640523
:1009E20022E522C394145003020923E50B60041587
:1009F2000B8033E50C602FAB0DAA0EA90FF58275A3
:100A02008300E41204D8AD0C7F01120C647F401203
:100A120013A28B238A248925E94A4B60068B0D8A0F
:080A22000E890F750C00C2CF14
:100A2A00D007D006D005D004D003D002D001D00020
:0B0A3A00D0D0D082D083D0F0D0E032CA
:03002300021404C0
:10140400C0E0C083C082C0D075D000C000C001C09D
:1014140002C003C007309820E50CC394405014ABBD
:101424000DAA0EA90FAF0C050C8F82758300E599E8
:101434001204D8750B0AC298D007D003D002D00189
:0B144400D000D0D0D082D083D0E032A6
:100C6400151615161516A816A60308A60208A60139
:0E0C74001516A816A6051516A816A60715161D
:100C8200C2AFA816E4F6A816E6FFC394145016EFF6
:100C920075F008A42414F582E43405F583E06005B8
:100CA200A8160680E1A816E6FFC394144003020DBD
:100CB2005BE512451145107018EF75F008A4241475
:100CC200F9740535F07B018B10F51189128B1380B5
:100CD2002FA816E675F008A4FFAEF02414F97405E7
:100CE2003EFA7B01C003C002C001AB13AA14A915CE
:100CF2009000051205BC74142FF974053E7513019A
:100D0200F5148915A81608E6AB13AA14A91512043E
:100D1200C6A8160808E6AB13AA14A915900001127A
:100D220004D8E5162403F8860308E6FA08E6F9C0B3
:100D320003C002C001AB13AA14A915900002120548
:100D4200BC7B007A007900C003C002C001AB13AAC9
:0D0D520014A9159000051205BCD2AF7F005A
:070D5F00E5162406F516223B
:080E1D008F298E288D278C26F9
:100E2500E4F52FE52F75F009A424B4F582E4340523
:100E3500F583E0FCA3E0FDA3E0FEA3E0FFE4FBFAFD
:100E4500F9F8C312055F6007052FE52FB414D4E543
:100E55002FC39414505BAF29AE28AD27AC26E52FE0
:100E650075F009A424B4F582E43405F583120580F0
:100E7500E52F75F009A424B8F582E43405F583E57A
:100E85002AF0E52F75F009A424B9F582E43405F5B7
:100E950083E52BF0E52F75F009A424BAF582E43437
:100EA50005F583E52CF0A3E52DF0A3E52EF07F01F4
:100EB500227BFF7A007903E52AFD7C007E007F0511
:060EC500120A457F002225
:0211D1008F2A63
:1011D300E4F52FE52F75F009A424B8F582E434056E
:1011E300F583E0652A7063E52F75F009A424B4F54F
:1011F30082E43405F583E0FCA3E0FDA3E0FEA3E075
:10120300FFE4FBFAF9F8C312055F603EE4FFFEFD5D
:10121300FCAB2EAA2DA92CA82BC312055F7011E5D8
:101223002F75F009A424B8F582E43405F583E4F0BE
:10123300AF2EAE2DAD2CAC2BE52F75F009A424B445
:10124300F582E43405F583120580052FE52F641438
:021253007081A8
:011255002276
:10133E0053D9BF900000E4F0A3B582FAE583B41050
:10134E00F51215611216051215B612157E1215201C
:10135E007F401213A28B0D8A0E890F74FFFFFEFDC4
:10136E00FC906600120570C312055F70031215D152
:10137E007BFF7A007916AFEFEFFD7C007E007F01D8
:10138E00120A45D2AFD2837B007A0079007D007FAE
:04139E0002020C64D7
:0100260022B7
:0E161A006D616C6C6F63206661696C656400C5
:10150800540500000000000000000000000000007A
:0715180000000000000000CC
:0813A2001516A816A607151682
:1013AA00A81608E6F6C2AFA816E4F6A816E6FFC322
:1013BA009414502574002FF582E43405F583E07007
:1013CA0013D2AFE675F040A42400F9740035F0FAA0
:1013DA007B018021A8160680D27BFF7A16791AA88B
:1013EA001608E6FD7C007E007F05120A45D2AF7B17
:0513FA00007A007900FB
:0513FF00051605162291
:06144F008B268A27892884
:10145500E94A4B603CE4F529E52975F040A42400F0
:10146500F9740035F0FAE52685278385288264011D
:101475007008E965827003EA6583700E740025299A
:10148500F582E43405F583E4F0220529E529B41451
:01149500C78F
:011496002233
:10068D0068656C7000646973706C617920636F6D5F
:10069D006D616E64206C69737400726573657400AE
:1006AD0072657365742074686520737973746572EF
:1006BD006D0076657273696F6E00646973706C613D
:1006CD0079207468652076657273696F6E206F6628
:1006DD00207379737465726D00667265736574004D
:1006ED00466163746F7279207265736574006C6F07
:1006FD006700646973706C617920746865206C6F34
:10070D0067206C69737400656C6F67006572617347
:10071D00757265206C6F67000A0D796F7520696EB3
:10072D0070757420636D642069733E3E2573000AF5
:10073D000D65726173757265206C6F6720737563DB
:10074D0063657373000A0D696E70757420636D6453
:10075D0020756E6B6E6F776E210A0D696E707574F4
:10076D00202268656C7022666F7220636F6D6D61FB
:10077D006E64206C6973742E000A0D706C65617364
:10078D006520696E70757420636D643E3E000D0AC0
:10079D00416C6C20746865207368656C6C20636FA8
:1007AD006D6D616E6420617320666F6C6C6F77A3E5
:1007BD00BA000D0A4E756D2020436F6D6D616E642C
:1007CD0020202020204272696566000D0A253033F5
:1007DD0064202000252D3130732020002573000D5D
:1007ED000A796F752063616E20696E707574203C97
:1007FD00436F6D6D616E643E206F72203C4E756D62
:10080D003E20646972656374000D0A202070726F5A
:10081D006A6563743A2048656C6C6F204D73674F41
:10082D0053202D3531000D0A20736F667477617278
:10083D00653A2056312E30000D0A20202020202030
:10084D004D43553A20433830353146333430000D61
:10085D000A202020617574686F723A20686F7520C8
:10086D006A696E207975000D0A2020202020746998
:10087D006D653A20323031332E31322E3239000A45
:10088D000D4E756D2020204576656E742044617483
:10089D006120204272696566000A0D252D356420A0
:1008AD00252D356420252D3564202573000000FF8E
:1008BD00068DFF06920001FF06A7FF06AD0002FFA1
:1008CD0006BFFF06C70003FF06E6FF06ED0004FFA7
:1008DD0006FBFF06FF0005FF0714FF0719000000C8
:0808ED00000000000000000003
:080F70008B2A8A2B892C8D2DA0
:100F7800782F7C007D007BFF7A0879EA7E007F0B62
:100F880012045A753D00753E00753F2F754001AB40
:100F98002AAA2BA92C120B58852D2DAB2AAA2BA9CE
:100FA8002C120480FFC39430400FEFD394395009BA
:100FB8007B007A00792F02100FE4F52EE52E75F0EC
:100FC80008A424BCF582E43408F583E493FB740197
:100FD80093FA7402938B3D8A3EF53F7B007A007941
:100FE8002F121497EF7014E52E75F008A424BAF5A3
:100FF80082E43408F583740193FF22052EE52EC39D
:06100800940640B87FFFD2
:01100E0022BF
:080ECB008B268A2789288D2956
:100ED3008B2F8A3089317BFF7A077925120090ABFB
:100EE30026AA27A928AD29120F70EF2402605524E2
:100EF300FEB406005065900F00F8282873020F1205
:100F0300020F17020F1C020F21020F26020F2B12D2
:100F130010AD805043EF10804B1214CF8046121552
:100F2300D180411212D1803C7F3512159A7F36123F
:100F3300159A7F3712159A7F3812159A7BFF7A0715
:100F4300793C801DE4FBFDFCFF121256E4F52EF5FF
:100F53002DF52CF52BFF1211D180097BFF7A077930
:0D0F6300521200907BFF7A07798602009001
:1010AD007BFF7A07799B1200907BFF7A0779BF123D
:1010BD000090E4F52A7BFF7A0779D8E52A75F008C8
:1010CD00A424BAF582E43408F583E493F52F740172
:1010DD0093F530120090E52A75F008A424BCF58232
:1010ED00E43408F583E493FB740193FA7402938B53
:1010FD002F8A30F5317BFF7A0779E1120090E52ACE
:10110D0075F008A424BFF582E43408F583E493FB5D
:10111D00740193FA7402938B2F8A30F5317BFF7A29
:10112D000779E9120090052AE52AC3940640867BCB
:08113D00FF7A0779EC02009033
:1014CF007BFF7A0879161200907BFF7A0879331226
:1014DF0000907BFF7A0879451200907BFF7A08799C
:0D14EF005C1200907BFF7A08797402009077
:1012D100752A6A752B007BFF7A08798C120090853C
:1012E1002B82852A83740293FE740393FFF47002A8
:1012F100EEF46048E493F52F740193F5308E318F4D
:1013010032740493F533740593F534E5822406F5BC
:1013110082E43583F583E493FB740193FA740293B9
:101321008B358A36F5377BFF7A0879A612009074DF
:0C13310009252BF52BE4352AF52A80A3B2
:01133D00228D
:03000000021145A5
:0C114500787FE4F6D8FD75814202118C21
:10038A00E709F608DFFA8046E709F208DFFA803E55
:10039A0088828C83E709F0A3DFFA8032E309F60842
:1003AA00DFFA8078E309F208DFFA807088828C83AA
:1003BA00E309F0A3DFFA806489828A83E0A3F6085E
:1003CA00DFFA805889828A83E0A3F208DFFA804C38
:1003DA0080D280FA80C680D4806980F2803380100F
:1003EA0080A680EA809A80A880DA80E280CA803378
:1003FA0089828A83ECFAE493A3C8C582C8CCC583F0
:10040A00CCF0A3C8C582C8CCC583CCDFE9DEE780BF
:10041A000D89828A83E493A3F608DFF9ECFAA9F03E
:10042A00EDFB2289828A83ECFAE0A3C8C582C8CC94
:10043A00C583CCF0A3C8C582C8CCC583CCDFEADEAD
:10044A00E880DB89828A83E493A3F208DFF980CC0F
:10045A0088F0EF60010E4E60C388F0ED2402B40408
:10046A000050B9F582EB2402B4040050AF232345AF
:06047A0082239003DA73F7
:10048000BB010689828A83E0225002E722BBFE027A
:09049000E32289828A83E49322AD
:10049900BB010CE58229F582E5833AF583E0225018
:1004A90006E92582F8E622BBFE06E92582F8E22262
:0D04B900E58229F582E5833AF583E493227C
:1004C600BB010689828A83F0225002F722BBFE0115
:0204D600F3220F
:1004D800F8BB010DE58229F582E5833AF583E8F05A
:1004E800225006E92582C8F622BBFE05E92582C806
:0204F800F222EE
:1004FA00E88FF0A4CC8BF0A42CFCE98EF0A42CFCA1
:10050A008AF0EDA42CFCEA8EF0A4CDA8F08BF0A41E
:10051A002DCC3825F0FDE98FF0A42CCD35F0FCEB7D
:10052A008EF0A4FEA9F0EB8FF0A4CFC5F02ECD3942
:0F053A00FEE43CFCEAA42DCE35F0FDE43CFC22AF
:10054900EB9FF5F0EA9E42F0E99D42F0EC6480C829
:0605590064809845F022C9
:10055F00EB9FF5F0EA9E42F0E99D42F0E89C45F0F2
:01056F002269
:10057000E493F8740193F9740293FA740393FB22E1
:0C058000ECF0A3EDF0A3EEF0A3EFF022EE
:10058C00BB010DE58229F582E5833AF58302063736
:10059C005007E92582F8020615BBFE07E92582F80B
:1005AC00020649E58229F582E5833AF58302065B6A
:1005BC00BB0120E58229F582E5833AF583D0F0D0A2
:1005CC00E0F8D0E0F9D0E0FAD0E0FBE8C0E0C0F011
:1005DC000206405018E92582F8D083D082D0E0F989
:1005EC00D0E0FAD0E0FBC082C08302062EBBFE181E
:1005FC00E92582F8D083D082D0E0F9D0E0FAD0E0BF
:09060C00FBC082C08302065222E9
:10002E00E53B242FF8E6053B22782C300702782F8B
:10003E00E475F00112061E0204802000EB7F2ED222
:10004E00008018EF540F2490D43440D4FF30040BAA
:10005E00EF24BFB41A0050032461FFE53C60021583
:10006E003C053FE53F7002053E30070D782CE475E8
:10007E00F00112061EEF0204C60216287403D20700
:10008E008003E4C207F53B8B2C8A2D892EE4F53CC8
:10009E00F53EF53FE53C60077F2012006980F5755F
:1000AE003DFFC201C200C202C203C205C206C2089F
:1000BE00120037FF700D3007057F0012007AAF3F38
:1000CE00AE3E22B4255FC2D5C204120037FF24D043
:1000DE00B40A00501A75F00A783C30D50508B6FF00
:1000EE000106C6A426F620D5047002D20380D924B8
:1000FE00CFB41A00EF5004C2E5D20402027AD20144
:10010E0080C6D20080C0D20280BCD2D580BAD205C1
:10011E0080B47F201200692002077401B53C0040B4
:10012E00F112002EFF1200690200A2D208D2068040
:10013E009512002EFB12002EFA12002EF94A4B7069
:10014E0006794B7A037BFF20022EE53C602A7E0067
:10015E008E8275830012049960060EEE653D70F076
:10016E00C2D5EBC0E0EAC0E0E9C0E0EE1202C1D0B9
:10017E00E0F9D0E0FAD0E0FB120480FF60AAEBC0F9
:10018E00E0EAC0E0E9C0E0120069D0E02401F9D055
:10019E00E03400FAD0E0FBE53D0460DCD53DD980CB
:1001AE00877BFF7A0279BDD202809C79108002791A
:1001BE0008C206C2088008D2D5790A8004790AC21C
:1001CE00D5E53D047002F53DE4FAFDFEFF12002E6A
:1001DE00FC7B0820011312002EFD7B1030000A124A
:1001EE00002EFE12002EFF7B20EC3382D592D550CE
:1001FE0013C3E43000069FFFE49EFEE42001039D3E
:10020E00FDE49CFCE4CBF8C201EC700CCFCECDCC5F
:10021E00E824F8F870F38017C3EF33FFEE33FEEDEA
:10022E0033FDEC33FCEB33FB994002FB0FD8E9EBCB
:10023E00300105F8D0E0C448B201C0E00AEC4D4EE2
:10024E004F78207B0070C2EAB53D0040BCC0E01282
:10025E0002C3D0F0D0E0200104C4C0E0C4B201C09B
:10026E00F0120052D0F0D5F0EB0200A21206670198
:10027E003F5301B95801104C010C4201BD4F01C54D
:0F028E004401C54901254301CB5501AF4601AFDE
:10029D004501AF47036B5001142D01182E013B2B67
:1002AD00011C2301392003542A00D44800000133D6
:1002BD003F3F3F00790AA2D5200314300509B9103C
:1002CD00020404B9080104A2D5200602500104203D
:1002DD0002689202B53C005034C0E07F2030031913
:1002ED007F30A20272067205500F12031AC202C2AB
:1002FD0006C205C2087F30800F300503E9C0E01249
:10030D000069300503D0E0F9D0E0B53CCC300517DD
:10031D007F30B9100C1200697F583004077F788048
:10032D0003B908031200693002057F2D0200697FB1
:10033D00202008F87F2B2006F322920280CF286E12
:10034D00756C6C2900D20112002E3001F8C20178B3
:10035D003C30D50108F60200D42D50434958120007
:10036D002E2403B405004001E49003669312005A55
:0D037D00743A12005AD203753C040201B913
:10115100020D66E493A3F8E493A34003F68001F241
:1011610008DFF48029E493A3F85407240CC8C3339F
:10117100C4540F4420C8834004F456800146F6DF6E
:10118100E4800B01020408102040809014FCE47EEE
:10119100019360BCA3FF543F30E509541FFEE49363
:1011A100A360010ECF54C025E060A840B8E493A32A
:1011B100FAE493A3F8E493A3C8C582C8CAC583CA55
:1011C100F0A3C8C582C8CAC583CADFE9DEE780BE0D
:01151F0000CB
:09061500E6FB08E6FA08E6F9220A
:10061E00FAE6FB0808E6F925F0F618E6CA3AF622DD
:09062E00EBF608EAF608E9F622F1
:09063700E0FBA3E0FAA3E0F922C4
:09064000EBF0A3EAF0A3E9F022BB
:09064900E2FB08E2FA08E2F922E2
:09065200EBF208EAF208E9F222D9
:0C065B00E493FB740193FA740293F922FB
:10066700D083D082F8E4937012740193700DA3A322
:1006770093F8740193F5828883E473740293686036
:06068700EFA3A3A380DF36
:00000001FF
